:1000000012C021C020C01FC01EC01DC01CC01BC00C
:100010001AC019C018C017C016C015C014C013C02C
:1000200012C011C010C011241FBECFE5D4E0DEBF46
:10003000CDBF10E0A0E6B0E001C01D92A836B10728
:10004000E1F7AAD11DC2DCCFFC0120E030E002C004
:10005000280F391F819191910097D1F7C901089517
:1000600086E085BBB39902C0B29BFCCFB09BFACFB0
:1000700085E085BB86EB93E028EC30E0F901319711
:10008000F1F70197D9F715BA089589E085BBB399BF
:1000900002C0B29BFCCFB09BFACF85E085BB86EB5C
:1000A00093E028EC30E0F9013197F1F70197D9F7A7
:1000B00015BA0895409162005091630041155105B1
:1000C000E1F02091640030916500F90173E0EE0FDA
:1000D000FF1F7A95E1F7E21BF30BE40FF51FEE0F1C
:1000E000FF1FE25AFF4F80819181089731F02F5F07
:1000F0003F4F30936500209364008091640090919D
:100100006500FC0123E0EE0FFF1F2A95E1F7E81BD5
:10011000F90BE40FF51FEE0FFF1FE05AFF4F81E0D0
:1001200090E0918380834F5F5F4F509363004093D3
:10013000620085E085BB86EB93E028EC30E0F901B6
:100140003197F1F70197D9F7089520916200309126
:1001500063008091640090916500FC01B3E0EE0FB4
:10016000FF1FBA95E1F7E81BF90BE20FF31FEE0F43
:10017000FF1FE05AFF4F88E090E0918380832F5F5C
:100180003F4F30936300209362008AE085BBB399B0
:1001900002C0B29BFBCF86E085BBB39902C0B29B85
:1001A000FBCFB09BF9CF0895AF92BF92CF92DF9271
:1001B000EF92FF920F931F93CF93DF9301E610E02E
:1001C000C0E6D0E0EE24FF2492E0A92EB12C81E01D
:1001D000C82ED12C30C0CE0137DF029771F0CE018E
:1001E00033DF0D9751F080E090E0CC31D10511F470
:1001F00081E090E029DF892B21F0F801B182A08213
:1002000014C0CE0121DF019721F0CE011DDF409700
:1002100021F4F801D182C08208C0CE0115DF8430FC
:10022000910519F4F801918380830894E11CF11C75
:100230000E5F1F4F2E9680916400909165008E1581
:100240009F054CF6DF91CF911F910F91FF90EF909A
:10025000DF90CF90BF90AF900895B4990AC0B39942
:1002600008C0B29906C0B19904C0B09902C06DDF50
:100270000895B49B08C0B39902C0B29B04C0B09962
:1002800002C0EEDE0895B39902C0B29BE6CFB19BE7
:10029000E4CFB099E2CFF9DE0895B59B07C086E0C0
:1002A00085BBB09BFECF85E085BB0895B69B06C09D
:1002B00089E085BBB09BFECF85E085BB089585E0D6
:1002C00085BB86EB93E028EC30E0F9013197F1F73C
:1002D0000197D9F7B49B0BC0B39B09C0B29B07C071
:1002E000B19B05C0B09B03C021E030E00DC08AE0A7
:1002F00085BB86EB93E028EC30E0F9013197F1F70C
:100300000197D9F720E030E0C90108951F9315E067
:10031000B4990AC0B39902C0B29B06C0B19904C097
:10032000B09B02C015BBF4CFB49B06C0B39902C00A
:10033000B29B02C095DEECCFB39902C0B29B04C061
:10034000B19B02C0A2DEE4CFB4990BC0B39902C046
:10035000B29B07C0B19905C0B09903C015BB7DDF42
:10036000D7CFB49B11C0B39B0FC0B29B0DC0B19B44
:100370000BC0B09B09C0B59B07C0B69B05C080E110
:1003800085BB12DF1F910895B59902C0B69BC0CFFF
:10039000B099BECF82DFBCCF0F931F938FEF84BB8A
:1003A00017BA05E010E1B2DFB4990AC0B39B08C0E8
:1003B000B29B06C0B19904C0B09B02C005BBF3CF8D
:1003C000B49B08C0B39B06C0B29B04C0B19902C0E5
:1003D000B09932C0B49908C0B39B06C0B29B04C0A8
:1003E000B19B02C0B09928C0B49B08C0B39B06C0A3
:1003F000B29B04C0B19B02C0B0991EC0B49B08C0A0
:10040000B39B06C0B29B04C0B19902C0B09B14C09C
:10041000B49908C0B39B06C0B29B04C0B19B02C094
:10042000B0990AC0B49BBFCFB39BBDCFB29BBBCF2B
:10043000B19BB9CFB099B7CFE0916600F09167005A
:10044000EE0FFF1FEF59FF4F0190F081E02DE130DB
:10045000F10511F42FDE08C0E230F10511F415DECC
:1004600003C0349759F4FCDD8091660090916700D9
:100470000196909367008093660095CF15BB93CF4C
:04048000F894FFCF1E
:00000001FF
