:1000000012C02CC02BC02AC029C028C027C026C0BF
:1000100025C024C023C022C021C020C01FC01EC0D4
:100020001DC01CC01BC011241FBECFE5D4E0DEBF25
:10003000CDBF10E0A0E6B0E0EEE9F5E002C005902B
:100040000D92A236B107D9F710E0A2E6B0E001C0E8
:100050001D92AA36B107E1F7BCD19FC2D1CFFC01F6
:1000600020E030E002C0280F391F81919191009764
:10007000D1F7C90108954091640050916500411580
:100080005105E1F02091660030916700F90173E0BD
:10009000EE0FFF1F7A95E1F7E21BF30BE40FF51F5C
:1000A000EE0FFF1FE05AFF4F80819181089731F0DA
:1000B0002F5F3F4F3093670020936600809166006A
:1000C00090916700FC0123E0EE0FFF1F2A95E1F7F6
:1000D000E81BF90BE40FF51FEE0FFF1FEE59FF4F62
:1000E00084E090E0918380834F5F5F4F5093650081
:1000F0004093640086E085BB82EE94E024E630E025
:10010000F9013197F1F70197D9F785E085BB88E0D0
:1001100097E024E630E0F9013197F1F70197D9F73C
:100120000895409164005091650041155105E1F03A
:100130002091660030916700F90193E0EE0FFF1FF8
:100140009A95E1F7E21BF30BE40FF51FEE0FFF1F8B
:10015000E05AFF4F80819181089731F02F5F3F4F28
:10016000309367002093660080916600909167004D
:10017000FC01B3E0EE0FFF1FBA95E1F7E81BF90BA6
:10018000E40FF51FEE0FFF1FEE59FF4F82E090E0E6
:10019000918380834F5F5F4F50936500409364006D
:1001A00089E085BB82EE94E024E630E0F9013197E6
:1001B000F1F70197D9F785E085BB88E097E024E661
:1001C00030E0F9013197F1F70197D9F7089540919F
:1001D00064005091650041155105E1F020916600E1
:1001E00030916700F90173E0EE0FFF1F7A95E1F798
:1001F000E21BF30BE40FF51FEE0FFF1FE05AFF4F5A
:1002000080819181089731F02F5F3F4F30936700D5
:10021000209366008091660090916700FC0133E0B6
:10022000EE0FFF1F3A95E1F7E81BF90BE40FF51FFE
:10023000EE0FFF1FEE59FF4F81E090E09183808326
:100240004F5F5F4F509365004093640085E085BB2E
:1002500088E097E024E630E0F9013197F1F7019763
:10026000D9F708952091640030916500809166006F
:1002700090916700FC01B3E0EE0FFF1FBA95E1F724
:10028000E81BF90BE20FF31FEE0FFF1FEE59FF4FB4
:1002900088E090E0918380832F5F3F4F309365002B
:1002A0002093640086E085BB84EC99E024E630E08E
:1002B000F9013197F1F70197D9F785E085BB88E01F
:1002C00097E024E630E0F9013197F1F70197D9F78B
:1002D0000895AF92BF92CF92DF92EF92FF920F9369
:1002E0001F93CF93DF9303E610E0C2E6D0E0EE2445
:1002F000FF2492E0A92EB12C81E0C82ED12C30C071
:10030000CE01ADDE029771F0CE01A9DE0D9751F05E
:1003100080E090E0CC31D10511F481E090E09FDEE7
:10032000892B21F0F801B182A08214C0CE0197DEA2
:10033000019721F0CE0193DE409721F4F801D1829C
:10034000C08208C0CE018BDE8430910519F4F8011B
:10035000918380830894E11CF11C0E5F1F4F2E9641
:1003600080916600909167008E159F054CF6DF9195
:10037000CF911F910F91FF90EF90DF90CF90BF90A2
:10038000AF90089585E085BB84E893E024E630E0F3
:10039000F9013197F1F70197D9F7B49B0BC0B39BE3
:1003A00009C0B29B07C0B19B05C0B09B03C021E050
:1003B00030E00DC08AE085BB84E893E024E630E0BD
:1003C000F9013197F1F70197D9F720E030E0C90141
:1003D00008950F931F93CF93DF938FEF84BB17BACA
:1003E000C4E6D0E015E000E18091600090916100EA
:1003F000892B09F467C0B49908C0B39B06C0B29BAF
:1004000004C0B19902C0B0992EC0B49B16C0B39B72
:1004100014C0B29B12C0B19B10C0B09B0EC0B2DF23
:10042000892B49F005BB55DF1092610010926000E6
:1004300084E893E01AC01FDEFBCFB4990AC0B39BD7
:1004400008C0B29B06C0B19B04C0B09B02C0BFDE17
:10045000EFCFB499EDCFB39BEBCFB29BE9CFB1997E
:10046000E7CFB099E5CF15BBE3CFFE013197F1F7A8
:100470000197D9F7B49B06C0B39B04C0B29B02C0DE
:10048000B19908C0B49B08C0B39B06C0B29B04C01E
:10049000B19902C0F0DDA8CFB49908C0B39B06C0E3
:1004A000B29B04C0B19B02C03CDE9ECFB4999CCFEE
:1004B000B39B9ACFB29B98CFB19996CFB09994CF76
:1004C000D1DE92CFB4990AC0B39B08C0B29B06C0DC
:1004D000B19904C0B09B02C015BB86CFB49B08C0C5
:1004E000B39B06C0B29B04C0B19902C0B09932C0A0
:1004F000B49908C0B39B06C0B29B04C0B19B02C0B4
:10050000B09928C0B49B08C0B39B06C0B29B04C07E
:10051000B19B02C0B0991EC0B49B08C0B39B06C07B
:10052000B29B04C0B19902C0B09B14C0B49908C07A
:10053000B39B06C0B29B04C0B19B02C0B0990AC075
:10054000B49B52CFB39B50CFB29B4ECFB19B4CCFFD
:10055000B0994ACFE0916800F0916900EE0FFF1F5B
:10056000ED59FF4F0190F081E02DE130F10511F4DC
:100570002EDE09C0E230F10511F4D3DD04C034975A
:1005800009F032CF78DD8091680090916900019682
:0E059000909369008093680027CFF894FFCF06
:02059E0001005A
:00000001FF
